{
    "contractName": "Bank",
    "abi": [
        {
            "inputs": [
                {
                    "internalType": "uint256",
                    "name": "target",
                    "type": "uint256"
                }
            ],
            "name": "addStake",
            "outputs": [],
            "stateMutability": "payable",
            "type": "function"
        },
        {
            "inputs": [
                {
                    "internalType": "address",
                    "name": "",
                    "type": "address"
                }
            ],
            "name": "stakes",
            "outputs": [
                {
                    "internalType": "uint256",
                    "name": "target",
                    "type": "uint256"
                },
                {
                    "internalType": "uint256",
                    "name": "balance",
                    "type": "uint256"
                }
            ],
            "stateMutability": "view",
            "type": "function"
        },
        {
            "inputs": [],
            "name": "unstake",
            "outputs": [],
            "stateMutability": "nonpayable",
            "type": "function"
        }
    ],
    "bytecode": "608060405234801561001057600080fd5b506102bd806100206000396000f3fe6080604052600436106100345760003560e01c806316934fc4146100395780632def662014610086578063eb4f16b51461009d575b600080fd5b34801561004557600080fd5b5061006d610054366004610217565b6000602081905290815260409020805460019091015482565b6040805192835260208301919091520160405180910390f35b34801561009257600080fd5b5061009b6100b0565b005b61009b6100ab366004610247565b610122565b336000908152602081905260409020805460019091015410156100d257600080fd5b3360008181526020819052604080822060010154905181156108fc0292818181858888f1935050505015801561010c573d6000803e3d6000fd5b5033600090815260208190526040812060010155565b33600090815260208190526040812060010154900361016b5760408051808201825291825234602080840191825233600090815290819052919091209151825551600190910155565b33600090815260208190526040902060010154156101ec57336000908152602081905260409020548111156101ca5733600090815260208190526040812082815560010180543492906101bf908490610260565b909155506102149050565b33600090815260208190526040812060010180543492906101bf908490610260565b336000908152602081905260408120600101805434929061020e908490610260565b90915550505b50565b60006020828403121561022957600080fd5b81356001600160a01b038116811461024057600080fd5b9392505050565b60006020828403121561025957600080fd5b5035919050565b8082018082111561028157634e487b7160e01b600052601160045260246000fd5b9291505056fea26469706673582212205120f7e69ea7cbd479e3a0344905a2e80cedb5b5a5a13458641b3d7dfcfd95f964736f6c63430008130033",
    "sourcePath": "e:/Bekzhan/Solidity Developer/Web3Js/tasks/35 task/contracts/Credit.sol",
    "compiler": {
        "name": "solc",
        "version": "0.8.19+commit.7dd6d404"
    },
    "functionHashes": {
        "addStake(uint256)": "eb4f16b5",
        "stakes(address)": "16934fc4",
        "unstake()": "2def6620"
    },
    "gasEstimates": {
        "creation": {
            "codeDepositCost": "140200",
            "executionCost": "183",
            "totalCost": "140383"
        },
        "external": {
            "addStake(uint256)": "53313",
            "stakes(address)": "4592",
            "unstake()": "infinite"
        }
    }
}